{
  "_format": "hh-sol-artifact-1",
  "contractName": "FileSharingDApp",
  "sourceName": "contracts/fileSharing.sol",
  "abi": [
    {
      "inputs": [
        {
          "internalType": "address",
          "name": "_vrfCoordinator",
          "type": "address"
        },
        {
          "internalType": "address",
          "name": "_linkToken",
          "type": "address"
        },
        {
          "internalType": "bytes32",
          "name": "_keyHash",
          "type": "bytes32"
        },
        {
          "internalType": "uint256",
          "name": "_fee",
          "type": "uint256"
        }
      ],
      "stateMutability": "nonpayable",
      "type": "constructor"
    },
    {
      "anonymous": false,
      "inputs": [
        {
          "indexed": true,
          "internalType": "address",
          "name": "owner",
          "type": "address"
        },
        {
          "indexed": true,
          "internalType": "address",
          "name": "buyer",
          "type": "address"
        },
        {
          "indexed": false,
          "internalType": "string",
          "name": "fileName",
          "type": "string"
        },
        {
          "indexed": false,
          "internalType": "string",
          "name": "fileHash",
          "type": "string"
        }
      ],
      "name": "FileCertificate",
      "type": "event"
    },
    {
      "anonymous": false,
      "inputs": [
        {
          "indexed": true,
          "internalType": "address",
          "name": "owner",
          "type": "address"
        },
        {
          "indexed": false,
          "internalType": "string",
          "name": "fileName",
          "type": "string"
        },
        {
          "indexed": false,
          "internalType": "string",
          "name": "fileHash",
          "type": "string"
        },
        {
          "indexed": false,
          "internalType": "bool",
          "name": "isPublic",
          "type": "bool"
        }
      ],
      "name": "FileShared",
      "type": "event"
    },
    {
      "anonymous": false,
      "inputs": [
        {
          "indexed": false,
          "internalType": "bytes32",
          "name": "requestId",
          "type": "bytes32"
        }
      ],
      "name": "RandomnessRequested",
      "type": "event"
    },
    {
      "anonymous": false,
      "inputs": [
        {
          "indexed": true,
          "internalType": "address",
          "name": "userAddress",
          "type": "address"
        },
        {
          "indexed": false,
          "internalType": "string",
          "name": "username",
          "type": "string"
        }
      ],
      "name": "UserLoggedIn",
      "type": "event"
    },
    {
      "anonymous": false,
      "inputs": [
        {
          "indexed": true,
          "internalType": "address",
          "name": "userAddress",
          "type": "address"
        },
        {
          "indexed": false,
          "internalType": "string",
          "name": "username",
          "type": "string"
        }
      ],
      "name": "UserSignedUp",
      "type": "event"
    },
    {
      "inputs": [],
      "name": "BASIC_PLAN",
      "outputs": [
        {
          "internalType": "uint256",
          "name": "",
          "type": "uint256"
        }
      ],
      "stateMutability": "view",
      "type": "function"
    },
    {
      "inputs": [],
      "name": "GOLD_PLAN",
      "outputs": [
        {
          "internalType": "uint256",
          "name": "",
          "type": "uint256"
        }
      ],
      "stateMutability": "view",
      "type": "function"
    },
    {
      "inputs": [],
      "name": "LICENSE_FEE",
      "outputs": [
        {
          "internalType": "uint256",
          "name": "",
          "type": "uint256"
        }
      ],
      "stateMutability": "view",
      "type": "function"
    },
    {
      "inputs": [],
      "name": "SILVER_PLAN",
      "outputs": [
        {
          "internalType": "uint256",
          "name": "",
          "type": "uint256"
        }
      ],
      "stateMutability": "view",
      "type": "function"
    },
    {
      "inputs": [
        {
          "internalType": "address",
          "name": "_owner",
          "type": "address"
        },
        {
          "internalType": "uint256",
          "name": "_ID",
          "type": "uint256"
        },
        {
          "internalType": "string",
          "name": "_fileName",
          "type": "string"
        },
        {
          "internalType": "string",
          "name": "_description",
          "type": "string"
        },
        {
          "internalType": "string",
          "name": "_category",
          "type": "string"
        },
        {
          "internalType": "string",
          "name": "_fileHash",
          "type": "string"
        },
        {
          "internalType": "bool",
          "name": "_isPublic",
          "type": "bool"
        }
      ],
      "name": "buyCertificate",
      "outputs": [],
      "stateMutability": "payable",
      "type": "function"
    },
    {
      "inputs": [
        {
          "internalType": "uint256",
          "name": "_credit",
          "type": "uint256"
        },
        {
          "internalType": "string",
          "name": "_plan",
          "type": "string"
        }
      ],
      "name": "buyCredit",
      "outputs": [],
      "stateMutability": "payable",
      "type": "function"
    },
    {
      "inputs": [
        {
          "internalType": "address",
          "name": "_newOwner",
          "type": "address"
        }
      ],
      "name": "changeOwner",
      "outputs": [],
      "stateMutability": "nonpayable",
      "type": "function"
    },
    {
      "inputs": [
        {
          "internalType": "string",
          "name": "_fileName",
          "type": "string"
        },
        {
          "internalType": "string",
          "name": "_description",
          "type": "string"
        },
        {
          "internalType": "string",
          "name": "_category",
          "type": "string"
        },
        {
          "internalType": "string",
          "name": "_fileHash",
          "type": "string"
        },
        {
          "internalType": "bool",
          "name": "_isPublic",
          "type": "bool"
        }
      ],
      "name": "createFile",
      "outputs": [],
      "stateMutability": "nonpayable",
      "type": "function"
    },
    {
      "inputs": [],
      "name": "getAllDappUsers",
      "outputs": [
        {
          "components": [
            {
              "internalType": "address",
              "name": "_address",
              "type": "address"
            },
            {
              "internalType": "string",
              "name": "fullname",
              "type": "string"
            },
            {
              "internalType": "string",
              "name": "username",
              "type": "string"
            },
            {
              "internalType": "string",
              "name": "email",
              "type": "string"
            },
            {
              "internalType": "string",
              "name": "password",
              "type": "string"
            },
            {
              "internalType": "bool",
              "name": "isRegistered",
              "type": "bool"
            },
            {
              "internalType": "uint256",
              "name": "registerAt",
              "type": "uint256"
            },
            {
              "internalType": "uint256",
              "name": "credit",
              "type": "uint256"
            },
            {
              "internalType": "string",
              "name": "membership",
              "type": "string"
            }
          ],
          "internalType": "struct FileSharingDApp.User[]",
          "name": "",
          "type": "tuple[]"
        }
      ],
      "stateMutability": "view",
      "type": "function"
    },
    {
      "inputs": [],
      "name": "getAllPublicFiles",
      "outputs": [
        {
          "components": [
            {
              "internalType": "uint256",
              "name": "ID",
              "type": "uint256"
            },
            {
              "internalType": "address",
              "name": "owner",
              "type": "address"
            },
            {
              "internalType": "string",
              "name": "fileName",
              "type": "string"
            },
            {
              "internalType": "string",
              "name": "description",
              "type": "string"
            },
            {
              "internalType": "string",
              "name": "category",
              "type": "string"
            },
            {
              "internalType": "string",
              "name": "fileHash",
              "type": "string"
            },
            {
              "internalType": "bool",
              "name": "isPublic",
              "type": "bool"
            },
            {
              "internalType": "uint256",
              "name": "createdAt",
              "type": "uint256"
            }
          ],
          "internalType": "struct FileSharingDApp.File[]",
          "name": "",
          "type": "tuple[]"
        }
      ],
      "stateMutability": "view",
      "type": "function"
    },
    {
      "inputs": [
        {
          "internalType": "address",
          "name": "_user",
          "type": "address"
        }
      ],
      "name": "getAllUserCertificates",
      "outputs": [
        {
          "components": [
            {
              "internalType": "uint256",
              "name": "ID",
              "type": "uint256"
            },
            {
              "internalType": "address",
              "name": "owner",
              "type": "address"
            },
            {
              "internalType": "string",
              "name": "fileName",
              "type": "string"
            },
            {
              "internalType": "string",
              "name": "description",
              "type": "string"
            },
            {
              "internalType": "string",
              "name": "category",
              "type": "string"
            },
            {
              "internalType": "string",
              "name": "fileHash",
              "type": "string"
            },
            {
              "internalType": "bool",
              "name": "isPublic",
              "type": "bool"
            },
            {
              "internalType": "uint256",
              "name": "createdAt",
              "type": "uint256"
            }
          ],
          "internalType": "struct FileSharingDApp.Certificate[]",
          "name": "",
          "type": "tuple[]"
        }
      ],
      "stateMutability": "view",
      "type": "function"
    },
    {
      "inputs": [
        {
          "internalType": "address",
          "name": "_user",
          "type": "address"
        }
      ],
      "name": "getAllUserFiles",
      "outputs": [
        {
          "components": [
            {
              "internalType": "uint256",
              "name": "ID",
              "type": "uint256"
            },
            {
              "internalType": "address",
              "name": "owner",
              "type": "address"
            },
            {
              "internalType": "string",
              "name": "fileName",
              "type": "string"
            },
            {
              "internalType": "string",
              "name": "description",
              "type": "string"
            },
            {
              "internalType": "string",
              "name": "category",
              "type": "string"
            },
            {
              "internalType": "string",
              "name": "fileHash",
              "type": "string"
            },
            {
              "internalType": "bool",
              "name": "isPublic",
              "type": "bool"
            },
            {
              "internalType": "uint256",
              "name": "createdAt",
              "type": "uint256"
            }
          ],
          "internalType": "struct FileSharingDApp.File[]",
          "name": "",
          "type": "tuple[]"
        }
      ],
      "stateMutability": "view",
      "type": "function"
    },
    {
      "inputs": [
        {
          "internalType": "string",
          "name": "_password",
          "type": "string"
        }
      ],
      "name": "login",
      "outputs": [
        {
          "internalType": "address",
          "name": "",
          "type": "address"
        },
        {
          "internalType": "string",
          "name": "",
          "type": "string"
        },
        {
          "internalType": "bool",
          "name": "",
          "type": "bool"
        }
      ],
      "stateMutability": "nonpayable",
      "type": "function"
    },
    {
      "inputs": [],
      "name": "owner",
      "outputs": [
        {
          "internalType": "address",
          "name": "",
          "type": "address"
        }
      ],
      "stateMutability": "view",
      "type": "function"
    },
    {
      "inputs": [
        {
          "internalType": "uint256",
          "name": "",
          "type": "uint256"
        }
      ],
      "name": "publicFiles",
      "outputs": [
        {
          "internalType": "uint256",
          "name": "ID",
          "type": "uint256"
        },
        {
          "internalType": "address",
          "name": "owner",
          "type": "address"
        },
        {
          "internalType": "string",
          "name": "fileName",
          "type": "string"
        },
        {
          "internalType": "string",
          "name": "description",
          "type": "string"
        },
        {
          "internalType": "string",
          "name": "category",
          "type": "string"
        },
        {
          "internalType": "string",
          "name": "fileHash",
          "type": "string"
        },
        {
          "internalType": "bool",
          "name": "isPublic",
          "type": "bool"
        },
        {
          "internalType": "uint256",
          "name": "createdAt",
          "type": "uint256"
        }
      ],
      "stateMutability": "view",
      "type": "function"
    },
    {
      "inputs": [],
      "name": "randomResult",
      "outputs": [
        {
          "internalType": "uint256",
          "name": "",
          "type": "uint256"
        }
      ],
      "stateMutability": "view",
      "type": "function"
    },
    {
      "inputs": [
        {
          "internalType": "bytes32",
          "name": "requestId",
          "type": "bytes32"
        },
        {
          "internalType": "uint256",
          "name": "randomness",
          "type": "uint256"
        }
      ],
      "name": "rawFulfillRandomness",
      "outputs": [],
      "stateMutability": "nonpayable",
      "type": "function"
    },
    {
      "inputs": [
        {
          "internalType": "bytes32",
          "name": "",
          "type": "bytes32"
        }
      ],
      "name": "requestIdToSender",
      "outputs": [
        {
          "internalType": "address",
          "name": "",
          "type": "address"
        }
      ],
      "stateMutability": "view",
      "type": "function"
    },
    {
      "inputs": [],
      "name": "requestRandomNumber",
      "outputs": [
        {
          "internalType": "bytes32",
          "name": "requestId",
          "type": "bytes32"
        }
      ],
      "stateMutability": "nonpayable",
      "type": "function"
    },
    {
      "inputs": [
        {
          "internalType": "string",
          "name": "_newPassword",
          "type": "string"
        }
      ],
      "name": "resetPassword",
      "outputs": [],
      "stateMutability": "nonpayable",
      "type": "function"
    },
    {
      "inputs": [
        {
          "internalType": "string",
          "name": "_fullname",
          "type": "string"
        },
        {
          "internalType": "string",
          "name": "_username",
          "type": "string"
        },
        {
          "internalType": "string",
          "name": "_email",
          "type": "string"
        },
        {
          "internalType": "string",
          "name": "_password",
          "type": "string"
        }
      ],
      "name": "signUp",
      "outputs": [],
      "stateMutability": "nonpayable",
      "type": "function"
    },
    {
      "inputs": [
        {
          "internalType": "address",
          "name": "",
          "type": "address"
        }
      ],
      "name": "users",
      "outputs": [
        {
          "internalType": "address",
          "name": "_address",
          "type": "address"
        },
        {
          "internalType": "string",
          "name": "fullname",
          "type": "string"
        },
        {
          "internalType": "string",
          "name": "username",
          "type": "string"
        },
        {
          "internalType": "string",
          "name": "email",
          "type": "string"
        },
        {
          "internalType": "string",
          "name": "password",
          "type": "string"
        },
        {
          "internalType": "bool",
          "name": "isRegistered",
          "type": "bool"
        },
        {
          "internalType": "uint256",
          "name": "registerAt",
          "type": "uint256"
        },
        {
          "internalType": "uint256",
          "name": "credit",
          "type": "uint256"
        },
        {
          "internalType": "string",
          "name": "membership",
          "type": "string"
        }
      ],
      "stateMutability": "view",
      "type": "function"
    }
  ],
  "bytecode": "0x60c06040526509184e72a000600255655af3107a40006003556601c6bf5263400060045566038d7ea4c680006005553480156200003b57600080fd5b5060405162004d3b38038062004d3b833981810160405281019062000061919062000206565b83838173ffffffffffffffffffffffffffffffffffffffff1660a08173ffffffffffffffffffffffffffffffffffffffff16815250508073ffffffffffffffffffffffffffffffffffffffff1660808173ffffffffffffffffffffffffffffffffffffffff1681525050505033600160006101000a81548173ffffffffffffffffffffffffffffffffffffffff021916908373ffffffffffffffffffffffffffffffffffffffff16021790555081600681905550806007819055505050505062000278565b600080fd5b600073ffffffffffffffffffffffffffffffffffffffff82169050919050565b600062000158826200012b565b9050919050565b6200016a816200014b565b81146200017657600080fd5b50565b6000815190506200018a816200015f565b92915050565b6000819050919050565b620001a58162000190565b8114620001b157600080fd5b50565b600081519050620001c5816200019a565b92915050565b6000819050919050565b620001e081620001cb565b8114620001ec57600080fd5b50565b6000815190506200020081620001d5565b92915050565b6000806000806080858703121562000223576200022262000126565b5b6000620002338782880162000179565b9450506020620002468782880162000179565b93505060406200025987828801620001b4565b92505060606200026c87828801620001ef565b91505092959194509250565b60805160a051614a8f620002ac60003960008181611cee01526129ee015260008181611ba301526129b20152614a8f6000f3fe6080604052600436106101355760003560e01c80637be338b6116100ab578063a87430ba1161006f578063a87430ba14610434578063a993dd2014610479578063b18bf14914610495578063e5174cf2146104c0578063e90b39ec146104eb578063fcbe7b331461051657610135565b80637be338b6146103635780638678a7b21461038c5780638da5cb5b146103b757806394985ddd146103e2578063a6f9dae11461040b57610135565b806342b4b0ac116100fd57806342b4b0ac1461023a5780634506708e14610265578063457be42f146102a9578063589218f1146102e657806373a6094a1461030f57806374ff7a331461033857610135565b806311bb47fb1461013a578063177f42f514610156578063219c0eee146101935780633a7d280c146101d057806342619f661461020f575b600080fd5b610154600480360381019061014f9190613178565b610541565b005b34801561016257600080fd5b5061017d6004803603810190610178919061328a565b610862565b60405161018a91906134ea565b60405180910390f35b34801561019f57600080fd5b506101ba60048036038101906101b59190613542565b610bce565b6040516101c7919061357e565b60405180910390f35b3480156101dc57600080fd5b506101f760048036038101906101f29190613599565b610c01565b6040516102069392919061363b565b60405180910390f35b34801561021b57600080fd5b50610224610ed2565b6040516102319190613688565b60405180910390f35b34801561024657600080fd5b5061024f610ed8565b60405161025c9190613688565b60405180910390f35b34801561027157600080fd5b5061028c600480360381019061028791906136a3565b610ede565b6040516102a09897969594939291906136d0565b60405180910390f35b3480156102b557600080fd5b506102d060048036038101906102cb919061328a565b611183565b6040516102dd91906138f1565b60405180910390f35b3480156102f257600080fd5b5061030d60048036038101906103089190613913565b6114ef565b005b34801561031b57600080fd5b5061033660048036038101906103319190613599565b611934565b005b34801561034457600080fd5b5061034d611a16565b60405161035a9190613688565b60405180910390f35b34801561036f57600080fd5b5061038a600480360381019061038591906139ea565b611a1c565b005b34801561039857600080fd5b506103a1611b9c565b6040516103ae9190613ae4565b60405180910390f35b3480156103c357600080fd5b506103cc611cc6565b6040516103d9919061357e565b60405180910390f35b3480156103ee57600080fd5b5061040960048036038101906104049190613aff565b611cec565b005b34801561041757600080fd5b50610432600480360381019061042d919061328a565b611d88565b005b34801561044057600080fd5b5061045b6004803603810190610456919061328a565b611e5c565b60405161047099989796959493929190613b3f565b60405180910390f35b610493600480360381019061048e9190613bef565b61217f565b005b3480156104a157600080fd5b506104aa6122b6565b6040516104b79190613688565b60405180910390f35b3480156104cc57600080fd5b506104d56122bc565b6040516104e29190613dee565b60405180910390f35b3480156104f757600080fd5b5061050061267b565b60405161050d91906134ea565b60405180910390f35b34801561052257600080fd5b5061052b6129a8565b6040516105389190613688565b60405180910390f35b600c60003373ffffffffffffffffffffffffffffffffffffffff1673ffffffffffffffffffffffffffffffffffffffff16815260200190815260200160002060050160009054906101000a900460ff166105d0576040517f08c379a00000000000000000000000000000000000000000000000000000000081526004016105c790613e5c565b60405180910390fd5b6002543414610614576040517f08c379a000000000000000000000000000000000000000000000000000000000815260040161060b90613f14565b60405180910390fd5b60006040518061010001604052808881526020018973ffffffffffffffffffffffffffffffffffffffff1681526020018781526020018681526020018581526020018481526020018315158152602001428152509050600b60003373ffffffffffffffffffffffffffffffffffffffff1673ffffffffffffffffffffffffffffffffffffffff1681526020019081526020016000208190806001815401808255809150506001900390600052602060002090600802016000909190919091506000820151816000015560208201518160010160006101000a81548173ffffffffffffffffffffffffffffffffffffffff021916908373ffffffffffffffffffffffffffffffffffffffff16021790555060408201518160020190816107399190614140565b50606082015181600301908161074f9190614140565b5060808201518160040190816107659190614140565b5060a082015181600501908161077b9190614140565b5060c08201518160060160006101000a81548160ff02191690831515021790555060e0820151816007015550508773ffffffffffffffffffffffffffffffffffffffff166108fc6002549081150290604051600060405180830381858888f193505050501580156107f0573d6000803e3d6000fd5b508773ffffffffffffffffffffffffffffffffffffffff163373ffffffffffffffffffffffffffffffffffffffff167f840b74921708622bf70a2d360ae1e8cf03d2481c103726a0406753da559b6f288886604051610850929190614212565b60405180910390a35050505050505050565b6060600a60008373ffffffffffffffffffffffffffffffffffffffff1673ffffffffffffffffffffffffffffffffffffffff168152602001908152602001600020805480602002602001604051908101604052809291908181526020016000905b82821015610bc3578382906000526020600020906008020160405180610100016040529081600082015481526020016001820160009054906101000a900473ffffffffffffffffffffffffffffffffffffffff1673ffffffffffffffffffffffffffffffffffffffff1673ffffffffffffffffffffffffffffffffffffffff16815260200160028201805461095790613f63565b80601f016020809104026020016040519081016040528092919081815260200182805461098390613f63565b80156109d05780601f106109a5576101008083540402835291602001916109d0565b820191906000526020600020905b8154815290600101906020018083116109b357829003601f168201915b505050505081526020016003820180546109e990613f63565b80601f0160208091040260200160405190810160405280929190818152602001828054610a1590613f63565b8015610a625780601f10610a3757610100808354040283529160200191610a62565b820191906000526020600020905b815481529060010190602001808311610a4557829003601f168201915b50505050508152602001600482018054610a7b90613f63565b80601f0160208091040260200160405190810160405280929190818152602001828054610aa790613f63565b8015610af45780601f10610ac957610100808354040283529160200191610af4565b820191906000526020600020905b815481529060010190602001808311610ad757829003601f168201915b50505050508152602001600582018054610b0d90613f63565b80601f0160208091040260200160405190810160405280929190818152602001828054610b3990613f63565b8015610b865780601f10610b5b57610100808354040283529160200191610b86565b820191906000526020600020905b815481529060010190602001808311610b6957829003601f168201915b505050505081526020016006820160009054906101000a900460ff16151515158152602001600782015481525050815260200190600101906108c3565b505050509050919050565b60096020528060005260406000206000915054906101000a900473ffffffffffffffffffffffffffffffffffffffff1681565b600060606000600c60003373ffffffffffffffffffffffffffffffffffffffff1673ffffffffffffffffffffffffffffffffffffffff16815260200190815260200160002060050160009054906101000a900460ff16610c96576040517f08c379a0000000000000000000000000000000000000000000000000000000008152600401610c8d90613e5c565b60405180910390fd5b600c60003373ffffffffffffffffffffffffffffffffffffffff1673ffffffffffffffffffffffffffffffffffffffff168152602001908152602001600020600401604051602001610ce891906142d7565b6040516020818303038152906040528051906020012084604051602001610d0f919061431f565b6040516020818303038152906040528051906020012014610d65576040517f08c379a0000000000000000000000000000000000000000000000000000000008152600401610d5c90614382565b60405180910390fd5b3373ffffffffffffffffffffffffffffffffffffffff167ffd7a49bf0be38d61ec3404f450519a68eb8bdd1edb8729b6c5f8c139e9dafeaf600c60003373ffffffffffffffffffffffffffffffffffffffff1673ffffffffffffffffffffffffffffffffffffffff168152602001908152602001600020600201604051610dec9190614426565b60405180910390a233600c60003373ffffffffffffffffffffffffffffffffffffffff1673ffffffffffffffffffffffffffffffffffffffff1681526020019081526020016000206002016001818054610e4590613f63565b80601f0160208091040260200160405190810160405280929190818152602001828054610e7190613f63565b8015610ebe5780601f10610e9357610100808354040283529160200191610ebe565b820191906000526020600020905b815481529060010190602001808311610ea157829003601f168201915b505050505091509250925092509193909250565b60085481565b60035481565b600d8181548110610eee57600080fd5b90600052602060002090600802016000915090508060000154908060010160009054906101000a900473ffffffffffffffffffffffffffffffffffffffff1690806002018054610f3d90613f63565b80601f0160208091040260200160405190810160405280929190818152602001828054610f6990613f63565b8015610fb65780601f10610f8b57610100808354040283529160200191610fb6565b820191906000526020600020905b815481529060010190602001808311610f9957829003601f168201915b505050505090806003018054610fcb90613f63565b80601f0160208091040260200160405190810160405280929190818152602001828054610ff790613f63565b80156110445780601f1061101957610100808354040283529160200191611044565b820191906000526020600020905b81548152906001019060200180831161102757829003601f168201915b50505050509080600401805461105990613f63565b80601f016020809104026020016040519081016040528092919081815260200182805461108590613f63565b80156110d25780601f106110a7576101008083540402835291602001916110d2565b820191906000526020600020905b8154815290600101906020018083116110b557829003601f168201915b5050505050908060050180546110e790613f63565b80601f016020809104026020016040519081016040528092919081815260200182805461111390613f63565b80156111605780601f1061113557610100808354040283529160200191611160565b820191906000526020600020905b81548152906001019060200180831161114357829003601f168201915b5050505050908060060160009054906101000a900460ff16908060070154905088565b6060600b60008373ffffffffffffffffffffffffffffffffffffffff1673ffffffffffffffffffffffffffffffffffffffff168152602001908152602001600020805480602002602001604051908101604052809291908181526020016000905b828210156114e4578382906000526020600020906008020160405180610100016040529081600082015481526020016001820160009054906101000a900473ffffffffffffffffffffffffffffffffffffffff1673ffffffffffffffffffffffffffffffffffffffff1673ffffffffffffffffffffffffffffffffffffffff16815260200160028201805461127890613f63565b80601f01602080910402602001604051908101604052809291908181526020018280546112a490613f63565b80156112f15780601f106112c6576101008083540402835291602001916112f1565b820191906000526020600020905b8154815290600101906020018083116112d457829003601f168201915b5050505050815260200160038201805461130a90613f63565b80601f016020809104026020016040519081016040528092919081815260200182805461133690613f63565b80156113835780601f1061135857610100808354040283529160200191611383565b820191906000526020600020905b81548152906001019060200180831161136657829003601f168201915b5050505050815260200160048201805461139c90613f63565b80601f01602080910402602001604051908101604052809291908181526020018280546113c890613f63565b80156114155780601f106113ea57610100808354040283529160200191611415565b820191906000526020600020905b8154815290600101906020018083116113f857829003601f168201915b5050505050815260200160058201805461142e90613f63565b80601f016020809104026020016040519081016040528092919081815260200182805461145a90613f63565b80156114a75780601f1061147c576101008083540402835291602001916114a7565b820191906000526020600020905b81548152906001019060200180831161148a57829003601f168201915b505050505081526020016006820160009054906101000a900460ff16151515158152602001600782015481525050815260200190600101906111e4565b505050509050919050565b600c60003373ffffffffffffffffffffffffffffffffffffffff1673ffffffffffffffffffffffffffffffffffffffff16815260200190815260200160002060050160009054906101000a900460ff161561157f576040517f08c379a000000000000000000000000000000000000000000000000000000000815260040161157690614494565b60405180910390fd5b6040518061012001604052803373ffffffffffffffffffffffffffffffffffffffff168152602001858152602001848152602001838152602001828152602001600115158152602001428152602001600581526020016040518060400160405280600981526020017f6e6f744d656d6265720000000000000000000000000000000000000000000000815250815250600c60003373ffffffffffffffffffffffffffffffffffffffff1673ffffffffffffffffffffffffffffffffffffffff16815260200190815260200160002060008201518160000160006101000a81548173ffffffffffffffffffffffffffffffffffffffff021916908373ffffffffffffffffffffffffffffffffffffffff16021790555060208201518160010190816116a99190614140565b5060408201518160020190816116bf9190614140565b5060608201518160030190816116d59190614140565b5060808201518160040190816116eb9190614140565b5060a08201518160050160006101000a81548160ff02191690831515021790555060c0820151816006015560e082015181600701556101008201518160080190816117369190614140565b50905050600e6040518061012001604052803373ffffffffffffffffffffffffffffffffffffffff168152602001868152602001858152602001848152602001838152602001600115158152602001428152602001600581526020016040518060400160405280600981526020017f6e6f744d656d6265720000000000000000000000000000000000000000000000815250815250908060018154018082558091505060019003906000526020600020906009020160009091909190915060008201518160000160006101000a81548173ffffffffffffffffffffffffffffffffffffffff021916908373ffffffffffffffffffffffffffffffffffffffff16021790555060208201518160010190816118509190614140565b5060408201518160020190816118669190614140565b50606082015181600301908161187c9190614140565b5060808201518160040190816118929190614140565b5060a08201518160050160006101000a81548160ff02191690831515021790555060c0820151816006015560e082015181600701556101008201518160080190816118dd9190614140565b5050503373ffffffffffffffffffffffffffffffffffffffff167f8071c88b5ffc3db203631c8ac7a0061d708c0cf8e731d88cdb296b2c18d382a48460405161192691906144b4565b60405180910390a250505050565b600c60003373ffffffffffffffffffffffffffffffffffffffff1673ffffffffffffffffffffffffffffffffffffffff16815260200190815260200160002060050160009054906101000a900460ff166119c3576040517f08c379a00000000000000000000000000000000000000000000000000000000081526004016119ba90613e5c565b60405180910390fd5b80600c60003373ffffffffffffffffffffffffffffffffffffffff1673ffffffffffffffffffffffffffffffffffffffff1681526020019081526020016000206004019081611a129190614140565b5050565b60045481565b600c60003373ffffffffffffffffffffffffffffffffffffffff1673ffffffffffffffffffffffffffffffffffffffff16815260200190815260200160002060050160009054906101000a900460ff16611aab576040517f08c379a0000000000000000000000000000000000000000000000000000000008152600401611aa290613e5c565b60405180910390fd5b6000600c60003373ffffffffffffffffffffffffffffffffffffffff1673ffffffffffffffffffffffffffffffffffffffff16815260200190815260200160002090506000816007015411611b35576040517f08c379a0000000000000000000000000000000000000000000000000000000008152600401611b2c90614548565b60405180910390fd5b6000611b3f611b9c565b9050336009600083815260200190815260200160002060006101000a81548173ffffffffffffffffffffffffffffffffffffffff021916908373ffffffffffffffffffffffffffffffffffffffff16021790555050505050505050565b60006007547f000000000000000000000000000000000000000000000000000000000000000073ffffffffffffffffffffffffffffffffffffffff166370a08231306040518263ffffffff1660e01b8152600401611bfa919061357e565b602060405180830381865afa158015611c17573d6000803e3d6000fd5b505050506040513d601f19601f82011682018060405250810190611c3b919061457d565b1015611c7c576040517f08c379a0000000000000000000000000000000000000000000000000000000008152600401611c739061461c565b60405180910390fd5b611c8a6006546007546129ae565b90507f3573455bfd612c588441d8f1bec935c6cf4d3643fc8fda959594e4ea24a234d081604051611cbb9190613ae4565b60405180910390a190565b600160009054906101000a900473ffffffffffffffffffffffffffffffffffffffff1681565b7f000000000000000000000000000000000000000000000000000000000000000073ffffffffffffffffffffffffffffffffffffffff163373ffffffffffffffffffffffffffffffffffffffff1614611d7a576040517f08c379a0000000000000000000000000000000000000000000000000000000008152600401611d7190614688565b60405180910390fd5b611d848282612afe565b5050565b600160009054906101000a900473ffffffffffffffffffffffffffffffffffffffff1673ffffffffffffffffffffffffffffffffffffffff163373ffffffffffffffffffffffffffffffffffffffff1614611e18576040517f08c379a0000000000000000000000000000000000000000000000000000000008152600401611e0f9061471a565b60405180910390fd5b80600160006101000a81548173ffffffffffffffffffffffffffffffffffffffff021916908373ffffffffffffffffffffffffffffffffffffffff16021790555050565b600c6020528060005260406000206000915090508060000160009054906101000a900473ffffffffffffffffffffffffffffffffffffffff1690806001018054611ea590613f63565b80601f0160208091040260200160405190810160405280929190818152602001828054611ed190613f63565b8015611f1e5780601f10611ef357610100808354040283529160200191611f1e565b820191906000526020600020905b815481529060010190602001808311611f0157829003601f168201915b505050505090806002018054611f3390613f63565b80601f0160208091040260200160405190810160405280929190818152602001828054611f5f90613f63565b8015611fac5780601f10611f8157610100808354040283529160200191611fac565b820191906000526020600020905b815481529060010190602001808311611f8f57829003601f168201915b505050505090806003018054611fc190613f63565b80601f0160208091040260200160405190810160405280929190818152602001828054611fed90613f63565b801561203a5780601f1061200f5761010080835404028352916020019161203a565b820191906000526020600020905b81548152906001019060200180831161201d57829003601f168201915b50505050509080600401805461204f90613f63565b80601f016020809104026020016040519081016040528092919081815260200182805461207b90613f63565b80156120c85780601f1061209d576101008083540402835291602001916120c8565b820191906000526020600020905b8154815290600101906020018083116120ab57829003601f168201915b5050505050908060050160009054906101000a900460ff16908060060154908060070154908060080180546120fc90613f63565b80601f016020809104026020016040519081016040528092919081815260200182805461212890613f63565b80156121755780601f1061214a57610100808354040283529160200191612175565b820191906000526020600020905b81548152906001019060200180831161215857829003601f168201915b5050505050905089565b600354341480612190575060045434145b8061219c575060055434145b6121db576040517f08c379a00000000000000000000000000000000000000000000000000000000081526004016121d2906147ac565b60405180910390fd5b6000600c60003373ffffffffffffffffffffffffffffffffffffffff1673ffffffffffffffffffffffffffffffffffffffff168152602001908152602001600020905082816007015461222e91906147fb565b8160070181905550818160080190816122479190614140565b50600160009054906101000a900473ffffffffffffffffffffffffffffffffffffffff1673ffffffffffffffffffffffffffffffffffffffff166108fc349081150290604051600060405180830381858888f193505050501580156122b0573d6000803e3d6000fd5b50505050565b60055481565b6060600e805480602002602001604051908101604052809291908181526020016000905b828210156126725783829060005260206000209060090201604051806101200160405290816000820160009054906101000a900473ffffffffffffffffffffffffffffffffffffffff1673ffffffffffffffffffffffffffffffffffffffff1673ffffffffffffffffffffffffffffffffffffffff16815260200160018201805461236a90613f63565b80601f016020809104026020016040519081016040528092919081815260200182805461239690613f63565b80156123e35780601f106123b8576101008083540402835291602001916123e3565b820191906000526020600020905b8154815290600101906020018083116123c657829003601f168201915b505050505081526020016002820180546123fc90613f63565b80601f016020809104026020016040519081016040528092919081815260200182805461242890613f63565b80156124755780601f1061244a57610100808354040283529160200191612475565b820191906000526020600020905b81548152906001019060200180831161245857829003601f168201915b5050505050815260200160038201805461248e90613f63565b80601f01602080910402602001604051908101604052809291908181526020018280546124ba90613f63565b80156125075780601f106124dc57610100808354040283529160200191612507565b820191906000526020600020905b8154815290600101906020018083116124ea57829003601f168201915b5050505050815260200160048201805461252090613f63565b80601f016020809104026020016040519081016040528092919081815260200182805461254c90613f63565b80156125995780601f1061256e57610100808354040283529160200191612599565b820191906000526020600020905b81548152906001019060200180831161257c57829003601f168201915b505050505081526020016005820160009054906101000a900460ff1615151515815260200160068201548152602001600782015481526020016008820180546125e190613f63565b80601f016020809104026020016040519081016040528092919081815260200182805461260d90613f63565b801561265a5780601f1061262f5761010080835404028352916020019161265a565b820191906000526020600020905b81548152906001019060200180831161263d57829003601f168201915b505050505081525050815260200190600101906122e0565b50505050905090565b6060600d805480602002602001604051908101604052809291908181526020016000905b8282101561299f578382906000526020600020906008020160405180610100016040529081600082015481526020016001820160009054906101000a900473ffffffffffffffffffffffffffffffffffffffff1673ffffffffffffffffffffffffffffffffffffffff1673ffffffffffffffffffffffffffffffffffffffff16815260200160028201805461273390613f63565b80601f016020809104026020016040519081016040528092919081815260200182805461275f90613f63565b80156127ac5780601f10612781576101008083540402835291602001916127ac565b820191906000526020600020905b81548152906001019060200180831161278f57829003601f168201915b505050505081526020016003820180546127c590613f63565b80601f01602080910402602001604051908101604052809291908181526020018280546127f190613f63565b801561283e5780601f106128135761010080835404028352916020019161283e565b820191906000526020600020905b81548152906001019060200180831161282157829003601f168201915b5050505050815260200160048201805461285790613f63565b80601f016020809104026020016040519081016040528092919081815260200182805461288390613f63565b80156128d05780601f106128a5576101008083540402835291602001916128d0565b820191906000526020600020905b8154815290600101906020018083116128b357829003601f168201915b505050505081526020016005820180546128e990613f63565b80601f016020809104026020016040519081016040528092919081815260200182805461291590613f63565b80156129625780601f1061293757610100808354040283529160200191612962565b820191906000526020600020905b81548152906001019060200180831161294557829003601f168201915b505050505081526020016006820160009054906101000a900460ff161515151581526020016007820154815250508152602001906001019061269f565b50505050905090565b60025481565b60007f000000000000000000000000000000000000000000000000000000000000000073ffffffffffffffffffffffffffffffffffffffff16634000aea07f000000000000000000000000000000000000000000000000000000000000000084866000604051602001612a2292919061482f565b6040516020818303038152906040526040518463ffffffff1660e01b8152600401612a4f939291906148ad565b6020604051808303816000875af1158015612a6e573d6000803e3d6000fd5b505050506040513d601f19601f82011682018060405250810190612a929190614900565b506000612ab48460003060008089815260200190815260200160002054612ee3565b9050600160008086815260200190815260200160002054612ad591906147fb565b60008086815260200190815260200160002081905550612af58482612f1f565b91505092915050565b8060088190555060006009600084815260200190815260200160002060009054906101000a900473ffffffffffffffffffffffffffffffffffffffff1690506000600854905060006040518061010001604052808381526020018473ffffffffffffffffffffffffffffffffffffffff168152602001604051806020016040528060008152508152602001604051806020016040528060008152508152602001604051806020016040528060008152508152602001604051806020016040528060008152508152602001600015158152602001428152509050600a60008473ffffffffffffffffffffffffffffffffffffffff1673ffffffffffffffffffffffffffffffffffffffff1681526020019081526020016000208190806001815401808255809150506001900390600052602060002090600802016000909190919091506000820151816000015560208201518160010160006101000a81548173ffffffffffffffffffffffffffffffffffffffff021916908373ffffffffffffffffffffffffffffffffffffffff1602179055506040820151816002019081612ca69190614140565b506060820151816003019081612cbc9190614140565b506080820151816004019081612cd29190614140565b5060a0820151816005019081612ce89190614140565b5060c08201518160060160006101000a81548160ff02191690831515021790555060e0820151816007015550506000600c60008573ffffffffffffffffffffffffffffffffffffffff1673ffffffffffffffffffffffffffffffffffffffff168152602001908152602001600020905060018160070154612d69919061492d565b81600701819055508160c0015115612e7d57600d8290806001815401808255809150506001900390600052602060002090600802016000909190919091506000820151816000015560208201518160010160006101000a81548173ffffffffffffffffffffffffffffffffffffffff021916908373ffffffffffffffffffffffffffffffffffffffff1602179055506040820151816002019081612e0d9190614140565b506060820151816003019081612e239190614140565b506080820151816004019081612e399190614140565b5060a0820151816005019081612e4f9190614140565b5060c08201518160060160006101000a81548160ff02191690831515021790555060e0820151816007015550505b8373ffffffffffffffffffffffffffffffffffffffff167f4b0334d6e57f0bb5a6c26031c3e1ea6c2a4c8413e216bd4f3c2f73be81f70aea83604001518460a001518560c00151604051612ed393929190614961565b60405180910390a2505050505050565b600084848484604051602001612efc94939291906149a6565b6040516020818303038152906040528051906020012060001c9050949350505050565b60008282604051602001612f34929190614a2d565b60405160208183030381529060405280519060200120905092915050565b6000604051905090565b600080fd5b600080fd5b600073ffffffffffffffffffffffffffffffffffffffff82169050919050565b6000612f9182612f66565b9050919050565b612fa181612f86565b8114612fac57600080fd5b50565b600081359050612fbe81612f98565b92915050565b6000819050919050565b612fd781612fc4565b8114612fe257600080fd5b50565b600081359050612ff481612fce565b92915050565b600080fd5b600080fd5b6000601f19601f8301169050919050565b7f4e487b7100000000000000000000000000000000000000000000000000000000600052604160045260246000fd5b61304d82613004565b810181811067ffffffffffffffff8211171561306c5761306b613015565b5b80604052505050565b600061307f612f52565b905061308b8282613044565b919050565b600067ffffffffffffffff8211156130ab576130aa613015565b5b6130b482613004565b9050602081019050919050565b82818337600083830152505050565b60006130e36130de84613090565b613075565b9050828152602081018484840111156130ff576130fe612fff565b5b61310a8482856130c1565b509392505050565b600082601f83011261312757613126612ffa565b5b81356131378482602086016130d0565b91505092915050565b60008115159050919050565b61315581613140565b811461316057600080fd5b50565b6000813590506131728161314c565b92915050565b600080600080600080600060e0888a03121561319757613196612f5c565b5b60006131a58a828b01612faf565b97505060206131b68a828b01612fe5565b965050604088013567ffffffffffffffff8111156131d7576131d6612f61565b5b6131e38a828b01613112565b955050606088013567ffffffffffffffff81111561320457613203612f61565b5b6132108a828b01613112565b945050608088013567ffffffffffffffff81111561323157613230612f61565b5b61323d8a828b01613112565b93505060a088013567ffffffffffffffff81111561325e5761325d612f61565b5b61326a8a828b01613112565b92505060c061327b8a828b01613163565b91505092959891949750929550565b6000602082840312156132a05761329f612f5c565b5b60006132ae84828501612faf565b91505092915050565b600081519050919050565b600082825260208201905092915050565b6000819050602082019050919050565b6132ec81612fc4565b82525050565b6132fb81612f86565b82525050565b600081519050919050565b600082825260208201905092915050565b60005b8381101561333b578082015181840152602081019050613320565b60008484015250505050565b600061335282613301565b61335c818561330c565b935061336c81856020860161331d565b61337581613004565b840191505092915050565b61338981613140565b82525050565b6000610100830160008301516133a860008601826132e3565b5060208301516133bb60208601826132f2565b50604083015184820360408601526133d38282613347565b915050606083015184820360608601526133ed8282613347565b915050608083015184820360808601526134078282613347565b91505060a083015184820360a08601526134218282613347565b91505060c083015161343660c0860182613380565b5060e083015161344960e08601826132e3565b508091505092915050565b6000613460838361338f565b905092915050565b6000602082019050919050565b6000613480826132b7565b61348a81856132c2565b93508360208202850161349c856132d3565b8060005b858110156134d857848403895281516134b98582613454565b94506134c483613468565b925060208a019950506001810190506134a0565b50829750879550505050505092915050565b600060208201905081810360008301526135048184613475565b905092915050565b6000819050919050565b61351f8161350c565b811461352a57600080fd5b50565b60008135905061353c81613516565b92915050565b60006020828403121561355857613557612f5c565b5b60006135668482850161352d565b91505092915050565b61357881612f86565b82525050565b6000602082019050613593600083018461356f565b92915050565b6000602082840312156135af576135ae612f5c565b5b600082013567ffffffffffffffff8111156135cd576135cc612f61565b5b6135d984828501613112565b91505092915050565b600082825260208201905092915050565b60006135fe82613301565b61360881856135e2565b935061361881856020860161331d565b61362181613004565b840191505092915050565b61363581613140565b82525050565b6000606082019050613650600083018661356f565b818103602083015261366281856135f3565b9050613671604083018461362c565b949350505050565b61368281612fc4565b82525050565b600060208201905061369d6000830184613679565b92915050565b6000602082840312156136b9576136b8612f5c565b5b60006136c784828501612fe5565b91505092915050565b6000610100820190506136e6600083018b613679565b6136f3602083018a61356f565b818103604083015261370581896135f3565b9050818103606083015261371981886135f3565b9050818103608083015261372d81876135f3565b905081810360a083015261374181866135f3565b905061375060c083018561362c565b61375d60e0830184613679565b9998505050505050505050565b600081519050919050565b600082825260208201905092915050565b6000819050602082019050919050565b6000610100830160008301516137af60008601826132e3565b5060208301516137c260208601826132f2565b50604083015184820360408601526137da8282613347565b915050606083015184820360608601526137f48282613347565b9150506080830151848203608086015261380e8282613347565b91505060a083015184820360a08601526138288282613347565b91505060c083015161383d60c0860182613380565b5060e083015161385060e08601826132e3565b508091505092915050565b60006138678383613796565b905092915050565b6000602082019050919050565b60006138878261376a565b6138918185613775565b9350836020820285016138a385613786565b8060005b858110156138df57848403895281516138c0858261385b565b94506138cb8361386f565b925060208a019950506001810190506138a7565b50829750879550505050505092915050565b6000602082019050818103600083015261390b818461387c565b905092915050565b6000806000806080858703121561392d5761392c612f5c565b5b600085013567ffffffffffffffff81111561394b5761394a612f61565b5b61395787828801613112565b945050602085013567ffffffffffffffff81111561397857613977612f61565b5b61398487828801613112565b935050604085013567ffffffffffffffff8111156139a5576139a4612f61565b5b6139b187828801613112565b925050606085013567ffffffffffffffff8111156139d2576139d1612f61565b5b6139de87828801613112565b91505092959194509250565b600080600080600060a08688031215613a0657613a05612f5c565b5b600086013567ffffffffffffffff811115613a2457613a23612f61565b5b613a3088828901613112565b955050602086013567ffffffffffffffff811115613a5157613a50612f61565b5b613a5d88828901613112565b945050604086013567ffffffffffffffff811115613a7e57613a7d612f61565b5b613a8a88828901613112565b935050606086013567ffffffffffffffff811115613aab57613aaa612f61565b5b613ab788828901613112565b9250506080613ac888828901613163565b9150509295509295909350565b613ade8161350c565b82525050565b6000602082019050613af96000830184613ad5565b92915050565b60008060408385031215613b1657613b15612f5c565b5b6000613b248582860161352d565b9250506020613b3585828601612fe5565b9150509250929050565b600061012082019050613b55600083018c61356f565b8181036020830152613b67818b6135f3565b90508181036040830152613b7b818a6135f3565b90508181036060830152613b8f81896135f3565b90508181036080830152613ba381886135f3565b9050613bb260a083018761362c565b613bbf60c0830186613679565b613bcc60e0830185613679565b818103610100830152613bdf81846135f3565b90509a9950505050505050505050565b60008060408385031215613c0657613c05612f5c565b5b6000613c1485828601612fe5565b925050602083013567ffffffffffffffff811115613c3557613c34612f61565b5b613c4185828601613112565b9150509250929050565b600081519050919050565b600082825260208201905092915050565b6000819050602082019050919050565b600061012083016000830151613c9060008601826132f2565b5060208301518482036020860152613ca88282613347565b91505060408301518482036040860152613cc28282613347565b91505060608301518482036060860152613cdc8282613347565b91505060808301518482036080860152613cf68282613347565b91505060a0830151613d0b60a0860182613380565b5060c0830151613d1e60c08601826132e3565b5060e0830151613d3160e08601826132e3565b50610100830151848203610100860152613d4b8282613347565b9150508091505092915050565b6000613d648383613c77565b905092915050565b6000602082019050919050565b6000613d8482613c4b565b613d8e8185613c56565b935083602082028501613da085613c67565b8060005b85811015613ddc5784840389528151613dbd8582613d58565b9450613dc883613d6c565b925060208a01995050600181019050613da4565b50829750879550505050505092915050565b60006020820190508181036000830152613e088184613d79565b905092915050565b7f55736572206e6f74207265676973746572656400000000000000000000000000600082015250565b6000613e466013836135e2565b9150613e5182613e10565b602082019050919050565b60006020820190508181036000830152613e7581613e39565b9050919050565b7f506c65617365207375626d6974207468652061736b696e67204c4943454e534560008201527f5f46454520696e206f7264657220746f20636f6d706c6574652074686520707560208201527f7263686173650000000000000000000000000000000000000000000000000000604082015250565b6000613efe6046836135e2565b9150613f0982613e7c565b606082019050919050565b60006020820190508181036000830152613f2d81613ef1565b9050919050565b7f4e487b7100000000000000000000000000000000000000000000000000000000600052602260045260246000fd5b60006002820490506001821680613f7b57607f821691505b602082108103613f8e57613f8d613f34565b5b50919050565b60008190508160005260206000209050919050565b60006020601f8301049050919050565b600082821b905092915050565b600060088302613ff67fffffffffffffffffffffffffffffffffffffffffffffffffffffffffffffffff82613fb9565b6140008683613fb9565b95508019841693508086168417925050509392505050565b6000819050919050565b600061403d61403861403384612fc4565b614018565b612fc4565b9050919050565b6000819050919050565b61405783614022565b61406b61406382614044565b848454613fc6565b825550505050565b600090565b614080614073565b61408b81848461404e565b505050565b5b818110156140af576140a4600082614078565b600181019050614091565b5050565b601f8211156140f4576140c581613f94565b6140ce84613fa9565b810160208510156140dd578190505b6140f16140e985613fa9565b830182614090565b50505b505050565b600082821c905092915050565b6000614117600019846008026140f9565b1980831691505092915050565b60006141308383614106565b9150826002028217905092915050565b61414982613301565b67ffffffffffffffff81111561416257614161613015565b5b61416c8254613f63565b6141778282856140b3565b600060209050601f8311600181146141aa5760008415614198578287015190505b6141a28582614124565b86555061420a565b601f1984166141b886613f94565b60005b828110156141e0578489015182556001820191506020850194506020810190506141bb565b868310156141fd57848901516141f9601f891682614106565b8355505b6001600288020188555050505b505050505050565b6000604082019050818103600083015261422c81856135f3565b9050818103602083015261424081846135f3565b90509392505050565b600081905092915050565b6000815461426181613f63565b61426b8186614249565b94506001821660008114614286576001811461429b576142ce565b60ff19831686528115158202860193506142ce565b6142a485613f94565b60005b838110156142c6578154818901526001820191506020810190506142a7565b838801955050505b50505092915050565b60006142e38284614254565b915081905092915050565b60006142f982613301565b6143038185614249565b935061431381856020860161331d565b80840191505092915050565b600061432b82846142ee565b915081905092915050565b7f496e76616c69642070617373776f726400000000000000000000000000000000600082015250565b600061436c6010836135e2565b915061437782614336565b602082019050919050565b6000602082019050818103600083015261439b8161435f565b9050919050565b600081546143af81613f63565b6143b981866135e2565b945060018216600081146143d457600181146143ea5761441d565b60ff19831686528115156020028601935061441d565b6143f385613f94565b60005b83811015614415578154818901526001820191506020810190506143f6565b808801955050505b50505092915050565b6000602082019050818103600083015261444081846143a2565b905092915050565b7f5573657220616c72656164792072656769737465726564000000000000000000600082015250565b600061447e6017836135e2565b915061448982614448565b602082019050919050565b600060208201905081810360008301526144ad81614471565b9050919050565b600060208201905081810360008301526144ce81846135f3565b905092915050565b7f596f7520646f6e277420686176652063726564697420746f206372656174652c60008201527f20627579206e6f77000000000000000000000000000000000000000000000000602082015250565b60006145326028836135e2565b915061453d826144d6565b604082019050919050565b6000602082019050818103600083015261456181614525565b9050919050565b60008151905061457781612fce565b92915050565b60006020828403121561459357614592612f5c565b5b60006145a184828501614568565b91505092915050565b7f4e6f7420656e6f756768204c494e4b202d2066696c6c20636f6e74726163742060008201527f7769746820666175636574000000000000000000000000000000000000000000602082015250565b6000614606602b836135e2565b9150614611826145aa565b604082019050919050565b60006020820190508181036000830152614635816145f9565b9050919050565b7f4f6e6c7920565246436f6f7264696e61746f722063616e2066756c66696c6c00600082015250565b6000614672601f836135e2565b915061467d8261463c565b602082019050919050565b600060208201905081810360008301526146a181614665565b9050919050565b7f4f6e6c7920746865206f776e65722063616e2063616c6c20746869732066756e60008201527f6374696f6e000000000000000000000000000000000000000000000000000000602082015250565b60006147046025836135e2565b915061470f826146a8565b604082019050919050565b60006020820190508181036000830152614733816146f7565b9050919050565b7f596f7520646f6e277420686176652066756e6420746f206d616b65207472616e60008201527f73616374696f6e73000000000000000000000000000000000000000000000000602082015250565b60006147966028836135e2565b91506147a18261473a565b604082019050919050565b600060208201905081810360008301526147c581614789565b9050919050565b7f4e487b7100000000000000000000000000000000000000000000000000000000600052601160045260246000fd5b600061480682612fc4565b915061481183612fc4565b9250828201905080821115614829576148286147cc565b5b92915050565b60006040820190506148446000830185613ad5565b6148516020830184613679565b9392505050565b600081519050919050565b600082825260208201905092915050565b600061487f82614858565b6148898185614863565b935061489981856020860161331d565b6148a281613004565b840191505092915050565b60006060820190506148c2600083018661356f565b6148cf6020830185613679565b81810360408301526148e18184614874565b9050949350505050565b6000815190506148fa8161314c565b92915050565b60006020828403121561491657614915612f5c565b5b6000614924848285016148eb565b91505092915050565b600061493882612fc4565b915061494383612fc4565b925082820390508181111561495b5761495a6147cc565b5b92915050565b6000606082019050818103600083015261497b81866135f3565b9050818103602083015261498f81856135f3565b905061499e604083018461362c565b949350505050565b60006080820190506149bb6000830187613ad5565b6149c86020830186613679565b6149d5604083018561356f565b6149e26060830184613679565b95945050505050565b6000819050919050565b614a06614a018261350c565b6149eb565b82525050565b6000819050919050565b614a27614a2282612fc4565b614a0c565b82525050565b6000614a3982856149f5565b602082019150614a498284614a16565b602082019150819050939250505056fea26469706673582212200ae466b1383fb85bce3dc4af3e55eac8fbfe54f6f8942bada8122fcf04ed1dd864736f6c63430008180033",
  "linkReferences": {},
  "deployedLinkReferences": {}
}